:020000040000FA
:0400000009EF00F014
:020004000000FA
:0800080029B019EF07F01EEF0B
:1000100007F0206A216A226A236A246A286A296A08
:100020002A6A256A266A276A2B6A2C6A2D6A2E6A32
:100030002F6A306A316A326A336A346A356A366ADC
:10004000376A386A396A3A6A3B6A010E3A6E010EBB
:100050003B6E29800F01806A896A386B926A816AD7
:100060008A6A396B936A826A8B6A3A6B946A836A8A
:100070008C6A3B6B956A846A8D6A3C6B966A938046
:100080003991F26AF288F28ED388D39AD38C94860F
:100090003A8794883A89948A3A8BC46A2F0EC06E44
:1000A000000EC16E000155EF00F029B05AEF00F0CC
:1000B0006CEF00F0E9EC07F0FF0EE8CF2AF0E3EC7C
:1000C00007F0B7EC07F0E9EC07F0B7EC07F029B060
:1000D0005AEF00F06CEF00F00F01816A8A6A396B09
:1000E000936AF26AF298F29E9380399100014E0E63
:1000F000E8CF2AF0E3EC07F00000B7EC07F081A0AE
:1001000077EF00F084EF00F0B7EC07F0E9EC07F0D0
:10011000B7EC07F04E0EE8CF2AF0E3EC07F0B7ECAF
:1001200007F0E9EC07F0B7EC07F04E0EE8CF2AF045
:10013000E3EC07F0B7EC07F0E9EC07F0B7EC07F0F9
:100140004E0EE8CF2AF0E3EC07F0B7EC07F0E9EC4D
:1001500007F0B7EC07F04E0EE8CF2AF0E3EC07F01B
:10016000B7EC07F0E9EC07F081A0BFEF00F0B9EFC2
:1001700000F081B0FED7F0EC07F045EF01F03D0E46
:10018000E8CF2AF0E3EC07F081A0BFEF00F0C9EF61
:1001900000F0B7EC07F0E9EC07F0B7EC07F03D0E24
:1001A000E8CF2AF0E3EC07F0B7EC07F0E9EC07F052
:1001B000B7EC07F03D0EE8CF2AF0E3EC07F0B7EC20
:1001C00007F0E9EC07F0B7EC07F03D0EE8CF2AF0B6
:1001D000E3EC07F0B7EC07F0E9EC07F0B7EC07F059
:1001E0003D0EE8CF2AF0E3EC07F0B7EC07F0E9ECBE
:1001F00007F081A002EF01F0FEEF00F081B0FED722
:1002000061EF03F0760EE8CF2AF0E3EC07F081A06F
:1002100002EF01F00CEF01F0B7EC07F0E9EC07F0AA
:10022000B7EC07F0760EE8CF2AF0E3EC07F0B7EC76
:1002300007F0E9EC07F0B7EC07F0760EE8CF2AF00C
:10024000E3EC07F0B7EC07F0E9EC07F0B7EC07F0E8
:10025000760EE8CF2AF0E3EC07F0B7EC07F0E9EC14
:1002600007F0B7EC07F0760EE8CF2AF0E3EC07F0E2
:10027000B7EC07F0E9EC07F081A077EF00F041EF71
:1002800001F081B0FED7F2EF03F017EC08F081A087
:1002900045EF01F04CEF01F071EC08F0B7EC07F01E
:1002A000C2EC07F025C0E8FF050FE8CF2DF0256A66
:1002B00017EC08F0B7EC07F071EC08F0B7EC07F0BA
:1002C00017EC08F0B7EC07F071EC08F0B7EC07F0AA
:1002D00017EC08F0B7EC07F071EC08F0B7EC07F09A
:1002E00072EF01F01DEC08F081A072EF01F079EFE0
:1002F00001F071EC08F0B7EC07F0C2EC07F025C094
:10030000E8FF050FE8CF2EF0256A1DEC08F0B7ECEA
:1003100007F071EC08F0B7EC07F01DEC08F0B7EC53
:1003200007F071EC08F0B7EC07F01DEC08F0B7EC43
:1003300007F071EC08F0B7EC07F09FEF01F023EC49
:1003400008F081A09FEF01F0A6EF01F071EC08F03A
:10035000B7EC07F0C2EC07F025C0E8FF050FE8CFC7
:100360002FF0256A23EC08F0B7EC07F071EC08F0E9
:10037000B7EC07F023EC08F0B7EC07F071EC08F0ED
:10038000B7EC07F023EC08F0B7EC07F071EC08F0DD
:10039000B7EC07F0CCEF01F029EC08F081A0CCEF2E
:1003A00001F0D3EF01F071EC08F0B7EC07F0C2EC0C
:1003B00007F025C0E8FF050FE8CF30F0256A29ECEB
:1003C00008F0B7EC07F071EC08F0B7EC07F029EC97
:1003D00008F0B7EC07F071EC08F0B7EC07F029EC87
:1003E00008F0B7EC07F071EC08F0B7EC07F0F9EFA4
:1003F00001F035EC08F081A0F9EF01F000EF02F018
:1004000077EC08F0B7EC07F0CDEC07F027C0E8FF79
:10041000050FE8CF31F0276A35EC08F0B7EC07F0AC
:1004200077EC08F0B7EC07F035EC08F0B7EC07F024
:1004300077EC08F0B7EC07F035EC08F0B7EC07F014
:1004400077EC08F0B7EC07F026EF02F03BEC08F091
:1004500081A026EF02F02DEF02F077EC08F0B7EC68
:1004600007F0CDEC07F027C0E8FF050FE8CF32F02A
:10047000276A3BEC08F0B7EC07F077EC08F0B7EC34
:1004800007F03BEC08F0B7EC07F077EC08F0B7ECBE
:1004900007F03BEC08F0B7EC07F077EC08F0B7ECAE
:1004A00007F053EF02F041EC08F081A053EF02F0A7
:1004B0005AEF02F077EC08F0B7EC07F0CDEC07F05C
:1004C00027C0E8FF050FE8CF33F0276A41EC08F0BA
:1004D000B7EC07F077EC08F0B7EC07F041EC08F068
:1004E000B7EC07F077EC08F0B7EC07F041EC08F058
:1004F000B7EC07F077EC08F0B7EC07F080EF02F00C
:1005000047EC08F081A080EF02F087EF02F077EC73
:1005100008F0B7EC07F0CDEC07F027C0E8FF050FB7
:10052000E8CF34F0276A47EC08F0B7EC07F077EC37
:1005300008F0B7EC07F047EC08F0B7EC07F077EC01
:1005400008F0B7EC07F047EC08F0B7EC07F077ECF1
:1005500008F0B7EC07F0ADEF02F053EC08F081A023
:10056000ADEF02F0B4EF02F07DEC08F0B7EC07F06D
:10057000D8EC07F026C0E8FF050FE8CF35F0266A73
:1005800053EC08F0B7EC07F07DEC08F0B7EC07F09F
:1005900053EC08F0B7EC07F07DEC08F0B7EC07F08F
:1005A00053EC08F0B7EC07F07DEC08F0B7EC07F07F
:1005B000DAEF02F059EC08F081A0DAEF02F0E1EF97
:1005C00002F07DEC08F0B7EC07F0D8EC07F026C09D
:1005D000E8FF050FE8CF36F0266A59EC08F0B7ECD3
:1005E00007F07DEC08F0B7EC07F059EC08F0B7EC39
:1005F00007F07DEC08F0B7EC07F059EC08F0B7EC29
:1006000007F07DEC08F0B7EC07F007EF03F05FECC4
:1006100008F081A007EF03F00EEF03F07DEC08F087
:10062000B7EC07F0D8EC07F026C0E8FF050FE8CFDD
:1006300037F0266A5FEC08F0B7EC07F07DEC08F0C5
:10064000B7EC07F05FEC08F0B7EC07F07DEC08F0D2
:10065000B7EC07F05FEC08F0B7EC07F07DEC08F0C2
:10066000B7EC07F034EF03F065EC08F081A034EF4D
:1006700003F03BEF03F07DEC08F0B7EC07F0D8ECAB
:1006800007F026C0E8FF050FE8CF38F0266A65ECD2
:1006900008F0B7EC07F07DEC08F0B7EC07F065EC7C
:1006A00008F0B7EC07F07DEC08F0B7EC07F065EC6C
:1006B00008F0B7EC07F07DEC08F0B7EC07F06CEF52
:1006C00000F0F0EC07F0C2EC07F0E86A2DC0E8FF9C
:1006D00025606FEF03F017EC08F091EF03F0E86A84
:1006E0002EC0E8FF256079EF03F01DEC08F091EFD4
:1006F00003F0E86A2FC0E8FF256083EF03F023ECE6
:1007000008F091EF03F0E86A30C0E8FF25608DEF54
:1007100003F029EC08F091EF03F02FEC08F091EFD3
:1007200003F0CDEC07F0E86A31C0E8FF27609DEFE9
:1007300003F035EC08F0BFEF03F0E86A32C0E8FFE1
:100740002760A7EF03F03BEC08F0BFEF03F0E86A87
:1007500033C0E8FF2760B1EF03F041EC08F0BFEFD2
:1007600003F0E86A34C0E8FF2760BBEF03F047EC12
:1007700008F0BFEF03F04DEC08F0BFEF03F0D8EC4A
:1007800007F0E86A35C0E8FF2660CBEF03F053ECD2
:1007900008F0EDEF03F0E86A36C0E8FF2660D5EF19
:1007A00003F059EC08F0EDEF03F0E86A37C0E8FF1A
:1007B0002660DFEF03F05FEC08F0EDEF03F0E86A8E
:1007C00038C0E8FF2660E9EF03F065EC08F0EDEFD4
:1007D00003F06BEC08F0EDEF03F081A061EF03F0A4
:1007E0006CEF00F00F01816A8A6A396B936AF26AD2
:1007F000F298F29E938039910001760EE8CF2AF0AC
:10080000E3EC07F00000B7EC07F081A0FDEF03F088
:100810000AEF04F0B7EC07F0E9EC07F0B7EC07F0EB
:10082000760EE8CF2AF0E3EC07F0B7EC07F0E9EC3E
:1008300007F0B7EC07F0760EE8CF2AF0E3EC07F00C
:10084000B7EC07F0E9EC07F0B7EC07F0760EE8CF6D
:100850002AF0E3EC07F0B7EC07F0E9EC07F0B7ECAF
:1008600007F0760EE8CF2AF0E3EC07F0B7EC07F0DC
:10087000E9EC07F081A043EF04F03FEF04F081B012
:10088000FED700EF05F07F0EE8CF2AF0E3EC07F08B
:1008900081A043EF04F04DEF04F0B7EC07F0E9EC72
:1008A00007F0B7EC07F07F0EE8CF2AF0E3EC07F093
:1008B000B7EC07F0E9EC07F07F0EE8CF2AF0E3ECA5
:1008C00007F0B7EC07F0E9EC07F0B7EC07F07F0EA4
:1008D000E8CF2AF0E3EC07F0B7EC07F0E9EC07F01B
:1008E0007F0EE8CF2AF0E3EC07F0B7EC07F0E9EC75
:1008F00007F081A082EF04F07EEF04F081B0FED714
:1009000028EF05F05F0EE8CF2AF0E3EC07F081A0B6
:1009100082EF04F08CEF04F0B7EC07F0E9EC07F09D
:10092000B7EC07F05F0EE8CF2AF0E3EC07F0B7EC86
:1009300007F0E9EC07F05F0EE8CF2AF0E3EC07F0F0
:10094000B7EC07F0E9EC07F0B7EC07F05F0EE8CF83
:100950002AF0E3EC07F0B7EC07F0E9EC07F05F0EE4
:10096000E8CF2AF0E3EC07F0B7EC07F0E9EC07F08A
:1009700081A0C1EF04F0BDEF04F081B0FED75FEFBE
:1009800005F0770EE8CF2AF0E3EC07F081A0C1EF85
:1009900004F0CBEF04F0B7EC07F0E9EC07F0B7ECAC
:1009A00007F0770EE8CF2AF0E3EC07F0B7EC07F09A
:1009B000E9EC07F0770EE8CF2AF0E3EC07F0B7ECAC
:1009C00007F0E9EC07F0B7EC07F0770EE8CF2AF074
:1009D000E3EC07F0B7EC07F0E9EC07F0770EE8CFAF
:1009E0002AF0E3EC07F0B7EC07F0E9EC07F081A0A0
:1009F000FDEF03F0FCEF04F081B0FED79AEF05F0B5
:100A000093803991F26AF288F28EC2EC07F02DC021
:100A1000E8FF25600FEF05F0398410EF05F03994F9
:100A2000CDEC07F031C0E8FF27600FEF05F0398209
:100A30001BEF05F03992D8EC07F035C0E8FF2660CF
:100A400025EF05F03980D1EF05F03990D1EF05F0B1
:100A500093803991F26AF288F28EC2EC07F02EC0D0
:100A6000E8FF25603CEF05F02DC0E8FF25643CEF72
:100A700005F039843DEF05F03994CDEC07F032C034
:100A8000E8FF27604CEF05F031C0E8FF27644CEF2A
:100A900005F039824DEF05F03992D8EC07F036C0F9
:100AA000E8FF26605CEF05F035C0E8FF26645CEFE8
:100AB00005F0398023EF06F0399023EF06F093809C
:100AC0003991F26AF288F28EC2EC07F02FC0E8FF8B
:100AD000256073EF05F02EC0E8FF256473EF05F085
:100AE000398476EF05F0399476EF05F0CDEC07F018
:100AF00033C0E8FF276085EF05F032C0E8FF2764C8
:100B000085EF05F0398288EF05F0399288EF05F01E
:100B1000D8EC07F037C0E8FF266097EF05F036C045
:100B2000E8FF266497EF05F0398075EF06F03990FD
:100B300075EF06F093803991F26AF288F28EC2EC7A
:100B400007F030C0E8FF2560AEEF05F02FC0E8FFEA
:100B50002564AEEF05F03984AFEF05F03994CDECA4
:100B600007F034C0E8FF2760BEEF05F033C0E8FFB0
:100B70002764BEEF05F03982BFEF05F03992D8EC5B
:100B800007F038C0E8FF2660CEEF05F037C0E8FF79
:100B90002664CEEF05F03980C7EF06F03990C7EF35
:100BA00006F03A2EDDEF05F0D6EF05F0FF0E3A6EB7
:100BB0003B2ED1EF05F06CEF00F039A4E2EF05F029
:100BC000E7EF05F039A2ECEF05F0F1EF05F039A2FF
:100BD000F6EF05F0FBEF05F039A000EF06F007EFA8
:100BE00006F039A00EEF06F00EEF06F039A015EF73
:100BF00006F000EF06F039A00EEF06F01CEF06F04D
:100C00004F0EE8CF2AF0E3EC07F000EF05F00E0EF0
:100C1000E8CF2AF0E3EC07F000EF05F05B0EE8CF39
:100C20002AF0E3EC07F000EF05F0770EE8CF2AF0AA
:100C3000E3EC07F000EF05F0370EE8CF2AF0E3EC25
:100C400007F000EF05F03A2E2FEF06F028EF06F040
:100C5000FF0E3A6E3B2E23EF06F06CEF00F039A446
:100C600034EF06F039EF06F039A23EEF06F043EF1D
:100C700006F039A248EF06F04DEF06F039A052EF2A
:100C800006F059EF06F039A060EF06F060EF06F0CD
:100C900039A067EF06F052EF06F039A060EF06F0DA
:100CA0006EEF06F04F0EE8CF2AF0E3EC07F028EFE6
:100CB00005F00E0EE8CF2AF0E3EC07F028EF05F080
:100CC0005B0EE8CF2AF0E3EC07F028EF05F0770E93
:100CD000E8CF2AF0E3EC07F028EF05F0370EE8CF75
:100CE0002AF0E3EC07F028EF05F03A2E81EF06F04A
:100CF0007AEF06F0140E3A6E3B2E81EF06F06CEFA1
:100D000000F039A486EF06F08BEF06F039A290EFE1
:100D100006F095EF06F039A29AEF06F09FEF06F085
:100D200039A0A4EF06F0ABEF06F039A0B2EF06F061
:100D3000B2EF06F039A0B9EF06F0A4EF06F039A043
:100D4000B2EF06F0C0EF06F04F0EE8CF2AF0E3EC6A
:100D500007F05FEF05F00E0EE8CF2AF0E3EC07F0A6
:100D60005FEF05F05B0EE8CF2AF0E3EC07F05FEFF2
:100D700005F0770EE8CF2AF0E3EC07F05FEF05F01F
:100D8000370EE8CF2AF0E3EC07F05FEF05F03A2EDC
:100D9000D3EF06F0CCEF06F0FF0E3A6E3B2EC7EF16
:100DA00006F06CEF00F039A4D8EF06F0DDEF06F0A6
:100DB00039A2E2EF06F0E7EF06F039A2ECEF06F019
:100DC000F1EF06F039A0F6EF06F0FDEF06F039A0DE
:100DD00004EF07F004EF07F039A00BEF07F0F6EF90
:100DE00006F039A004EF07F012EF07F04F0EE8CF3E
:100DF0002AF0E3EC07F09AEF05F00E0EE8CF2AF0A8
:100E0000E3EC07F09AEF05F05B0EE8CF2AF0E3EC95
:100E100007F09AEF05F0770EE8CF2AF0E3EC07F041
:100E20009AEF05F0370EE8CF2AF0E3EC07F09AEFDF
:100E300005F0000029900000F2921000F0EC07F09D
:100E4000C2EC07F0E86A2DC0E8FF25602CEF07F040
:100E500017EC08F04EEF07F0E86A2EC0E8FF2560B7
:100E600036EF07F01DEC08F04EEF07F0E86A2FC0F0
:100E7000E8FF256040EF07F023EC08F04EEF07F0A5
:100E8000E86A30C0E8FF25604AEF07F029EC08F077
:100E90004EEF07F02FEC08F04EEF07F0CDEC07F027
:100EA000E86A31C0E8FF27605AEF07F035EC08F038
:100EB0007CEF07F0E86A32C0E8FF276064EF07F0D4
:100EC0003BEC08F07CEF07F0E86A33C0E8FF2760EE
:100ED0006EEF07F041EC08F07CEF07F0E86A34C0F1
:100EE000E8FF276078EF07F047EC08F07CEF07F0A9
:100EF0004DEC08F07CEF07F0D8EC07F0E86A35C05D
:100F0000E8FF266088EF07F053EC08F0AAEF07F03F
:100F1000E86A36C0E8FF266092EF07F059EC08F067
:100F2000AAEF07F0E86A37C0E8FF26609CEF07F0F9
:100F30005FEC08F0AAEF07F0E86A38C0E8FF266027
:100F4000A6EF07F065EC08F0AAEF07F06BEC08F0ED
:100F5000AAEF07F0F2921000AA0E206EBB0E216ECF
:100F6000212EB0EF07F0202EAEEF07F01200FF0E9B
:100F70002B6ED80E2C6E2C2EBBEF07F02B2EB9EF5C
:100F800007F012000F013D0EC26EC2820001C2B214
:100F9000FED7C4CFE8FF256E12000F01410EC26ECE
:100FA000C2820001C2B2FED7C4CFE8FF276E120092
:100FB0000F01450EC26EC2820001C2B2FED7C4CF7D
:100FC000E8FF266E1200926A386B2AC089FF000083
:100FD0001200926A386B000EE8CF89FF0000120001
:100FE0000F01809480968098899489968998389585
:100FF0003897389992949296929884908492849497
:101000008D908D928D943C913C933C9596909692C8
:101010009694809A809C809E899A899C899E389B10
:10102000389D389F929A929C929E000112000F0167
:10103000898489968988000112000F018994899614
:101040008988000112000F0189848986899800012E
:1010500012000F01898489968998000112000F01FE
:10106000898489868988000112000F018D808D9204
:101070008D84000112000F018D908D928D840001EE
:1010800012000F018D808D828D94000112000F01DE
:101090008D808D928D94000112000F018D808D82C4
:1010A0008D84000112000F01898A899C898E0001BC
:1010B00012000F01899A899C898E000112000F018C
:1010C000898A898C899E000112000F01898A899C76
:1010D000899E000112000F01898A898C898E000186
:1010E00012000F01899489968998000112000F015E
:1010F0008D908D928D94000112000F01899A899C28
:06110000899E00011200AF
:020000040030CA
:0100010028D6
:010003003CC0
:00000001FF
