:020000040000FA
:0400000006EF00F017
:020004000000FA
:08000800DEEF04F0206A216A1A
:10001000226A236A246A256A266A276A296A286A64
:100020002A6A2B6A2C6A2D6A209037EC01F05AEC70
:1000300001F060EC01F06EEC01F083EC01F021EFD7
:1000400000F025B036EF00F025B26CEF00F025B4DB
:10005000A0EF00F025B6BCEF00F025B8E3EF00F00C
:1000600025BA02EF01F025BE21EF01F029EC01F0E5
:10007000330EE8CF2BF023EC01F02590296A286A93
:100080000D0E30EC01F0560E30EC01F0720E30EC3B
:1000900001F06F0E30EC01F06F0E30EC01F06F0EDE
:1000A00030EC01F06D0E30EC01F02E0E30EC01F072
:1000B0002E0E30EC01F02E0E30EC01F00D0E30EC77
:1000C00001F026A061EF00F0DFEC01F025A261EF66
:1000D00000F0259021EF00F029EC01F07E0EE8CF32
:1000E0002BF023EC01F02592296A286A28EC02F013
:1000F00026A078EF00F0D9EC03F0F2EC03F00BEC63
:1001000004F024EC04F03DEC04F028B0258429BC74
:10011000258629B8258829B4258A29B0258E25B4B5
:1001200021EF00F025B621EF00F025B821EF00F017
:1001300025BA21EF00F025BE21EF00F078EF00F0A6
:1001400029EC01F0300EE8CF2BF023EC01F02594E0
:100150002592296A286A216A26A0ACEF00F0E8CF30
:1001600022F090EC01F056EC04F029A0ACEF00F086
:100170002582259421EF00F029EC01F06D0EE8CFE7
:100180002BF023EC01F025962592296A286A26A0F7
:10019000C7EF00F060EC04F092EC04F079EC04F0AE
:1001A000ABEC04F0DFEC01F028BC2A8628B82582ED
:1001B00028B4258228B0258229B0258225A2C7EF40
:1001C00000F021EF00F029EC01F0790EE8CF2BF0E0
:1001D00023EC01F0D3EC04F0D3EC04F0D3EC04F006
:1001E000D3EC04F0D3EC04F0D3EC04F0D3EC04F043
:1001F000D3EC04F0D3EC04F025982582296A286A10
:1002000021EF00F029EC01F0330EE8CF2BF023ECC6
:1002100001F0D3EC04F0D3EC04F0D3EC04F0D3EC15
:1002200004F0D3EC04F0D3EC04F0D3EC04F0D3EC02
:1002300004F0D3EC04F0259A2582296A286A21EF7C
:1002400000F021EF00F0956A3B6B2BC08CFF0000A3
:100250001200956A3B6B000EE8CF8CFF0000120085
:10026000E8CFADFFACA2FED7C4EC04F012000F0142
:10027000806A896A386B926A816A8A6A396B936A82
:10028000826A8B6A3A6B946A836A8C6A3B6B956A62
:10029000846A8D6A3C6B966A000112000F0181909E
:1002A0008A903991939093803991F26AF288F28E14
:1002B000000112000F01D388D39AD38C00011200E1
:1002C0000F01928038819282388392843885C46A83
:1002D0002F0EC06E000EC16E000112000F01F28CD5
:1002E0009D8AAF6AB06AAC98B896AC840C0EAF6EBB
:1002F000948C948EAB8EAC9CB898AC8AAB9CB89A1C
:10030000AB88000112000F01C66AC686C694C69269
:10031000C690C68A94869488090EC86E00011200A1
:10032000C5809EA6FED79E96A00EC96E6BBCFED75A
:100330009EA6FED79E9621C0C9FF6BBCFED79EA687
:10034000FED79E9622C0C9FF6BBCFED79EA6FED7E5
:100350009E96C5849EA6FED79E96212AC4EC04F0E4
:10036000C4EC04F01200C5829EA6FED79E96A00E95
:10037000C96E6BBCFED79EA6FED79E9621C0C9FF54
:100380006BBCFED79EA6FED79E96C5829EA6FED7C4
:100390009E96A10EC96E6BBCFED79EA6FED79E96FA
:1003A000C5869EA6FED79E96C9CF22F0C58AC5886F
:1003B0009EA6FED79E961200296A286A120029AAD4
:1003C000F1EF01F029A8F9EF01F029A602EF02F000
:1003D00029A40BEF02F029A214EF02F029A01DEFCF
:1003E00002F02690E8CF27F0420E27621200298AF9
:1003F00012002690E8CF27F06F0E2762DCEF01F0A5
:10040000298812002690E8CF27F06F0E2762DCEFD4
:1004100001F0298612002690E8CF27F06D0E2762A2
:10042000DCEF01F0298412002690E8CF27F0210E9E
:100430002762DCEF01F0298212002690E8CF27F036
:100440000D0E2762DCEF01F0258229802590120035
:10045000E86A540E30EC01F0E86A650E30EC01F009
:10046000E86A610E30EC01F0E86A6D0E30EC01F0E4
:10047000E86A200E30EC01F0E86A330E30EC01F04F
:10048000E86A390E30EC01F0E86A200E30EC01F039
:10049000E86A690E30EC01F0E86A730E30EC01F0A6
:1004A000E86A200E30EC01F0E86A540E30EC01F0FE
:1004B000E86A680E30EC01F0E86A650E30EC01F095
:1004C000E86A200E30EC01F0E86A410E30EC01F0F1
:1004D000E86A200E30EC01F0E86A540E30EC01F0CE
:1004E000E86A650E30EC01F0E86A610E30EC01F06C
:1004F000E86A6D0E30EC01F0E86A0D0E30EC01F0A8
:10050000E86A280E30EC01F0E86A730E30EC01F076
:10051000E86A6C0E30EC01F0E86A6F0E30EC01F026
:10052000E86A670E30EC01F0E86A610E30EC01F029
:10053000E86A6E0E30EC01F0E86A290E30EC01F04A
:10054000E86A0D0E30EC01F0E86A430E30EC01F081
:10055000E86A680E30EC01F0E86A6F0E30EC01F0EA
:10056000E86A6F0E30EC01F0E86A730E30EC01F0CF
:10057000E86A650E30EC01F0E86A200E30EC01F01C
:10058000E86A790E30EC01F0E86A6F0E30EC01F0A9
:10059000E86A750E30EC01F0E86A720E30EC01F09A
:1005A000E86A200E30EC01F0E86A4D0E30EC01F004
:1005B000E86A410E30EC01F0E86A520E30EC01F0CE
:1005C000E86A560E30EC01F0E86A200E30EC01F0DB
:1005D000E86A6D0E30EC01F0E86A6F0E30EC01F065
:1005E000E86A640E30EC01F0E86A650E30EC01F068
:1005F000E86A2E0E30EC01F0E86A2E0E30EC01F0C5
:10060000E86A2E0E30EC01F0E86A0D0E30EC01F0D5
:10061000E86A280E30EC01F0E86A500E30EC01F088
:10062000E86A290E30EC01F0E86A720E30EC01F055
:10063000E86A6F0E30EC01F0E86A670E30EC01F00A
:10064000E86A720E30EC01F0E86A610E30EC01F0FD
:10065000E86A6D0E30EC01F0E86A0D0E30EC01F046
:10066000E86A280E30EC01F0E86A460E30EC01F042
:10067000E86A290E30EC01F0E86A300E30EC01F047
:10068000E86A6C0E30EC01F0E86A6C0E30EC01F0B8
:10069000E86A6F0E30EC01F0E86A770E30EC01F09A
:1006A000E86A200E30EC01F0E86A630E30EC01F0ED
:1006B000E86A6F0E30EC01F0E86A6C0E30EC01F085
:1006C000E86A6F0E30EC01F0E86A750E30EC01F06C
:1006D000E86A720E30EC01F0E86A0D0E30EC01F0C1
:1006E000E86A280E30EC01F0E86A430E30EC01F0C5
:1006F000E86A290E30EC01F0E86A610E30EC01F096
:10070000E86A6C0E30EC01F0E86A690E30EC01F03A
:10071000E86A620E30EC01F0E86A720E30EC01F02B
:10072000E86A610E30EC01F0E86A740E30EC01F01A
:10073000E86A650E30EC01F0E86A0D0E30EC01F06D
:10074000E86A280E30EC01F0E86A520E30EC01F055
:10075000E86A290E30EC01F0E86A610E30EC01F035
:10076000E86A630E30EC01F0E86A650E30EC01F0E7
:10077000E86A0D0E30EC01F0E86A280E30EC01F06A
:10078000E86A540E30EC01F0E86A290E30EC01F012
:10079000E86A690E30EC01F0E86A6D0E30EC01F0A9
:1007A000E86A650E30EC01F0E86A0D0E30EC01F0FD
:1007B000120028A2DFEF03F028A0E7EF03F0269055
:1007C000E8CF27F0500E27621200288212002690F0
:1007D000E8CF27F00D0E2762DCEF01F0258428809A
:1007E0002592120029AEF8EF03F029AC00EF04F0D7
:1007F0002690E8CF27F0460E27621200298E1200BD
:100800002690E8CF27F00D0E2762DCEF01F0258659
:10081000298C2592120029AA11EF04F029A819EFBA
:1008200004F02690E8CF27F0430E27621200298AB1
:1008300012002690E8CF27F00D0E2762DCEF01F0C2
:10084000258829882592120029A62AEF04F029A4D8
:1008500032EF04F02690E8CF27F0520E2762120004
:10086000298612002690E8CF27F00D0E2762DCEFD4
:1008700001F0258A29842592120029A243EF04F071
:1008800029A04BEF04F02690E8CF27F0540E276202
:100890001200298212002690E8CF27F00D0E276261
:1008A000DCEF01F0258E2980259212002690E8CFFA
:1008B00027F00D0E27621200258225942980120050
:1008C00028AE66EF04F028AC6EEF04F02690E8CF77
:1008D00027F0520E27621200288E12002690E8CFD1
:1008E00027F00D0E2762DCEF01F02582288C2A8686
:1008F000120028AA7FEF04F028A887EF04F02690C2
:10090000E8CF27F0470E27621200288A12002690AF
:10091000E8CF27F00D0E2762DCEF01F02582288852
:100920002A84120028A698EF04F028A4A0EF04F06F
:100930002690E8CF27F0420E276212002886120088
:100940002690E8CF27F00D0E2762DCEF01F025821C
:1009500028842A82120028A2B1EF04F028A0B9EF5F
:1009600004F02690E8CF27F06E0E2762120028824E
:1009700012002690E8CF27F00D0E2762DCEF01F081
:10098000258228802A8012000F0E236EFF0E246E0F
:10099000232ECDEF04F0D2EF04F0242ECDEF04F09F
:1009A000C6EF04F01200FF0E2C6ED80E2D6E2D2E09
:1009B000D7EF04F02C2ED5EF04F0120020B0E6EFB4
:1009C00004F09EAAFED7E8EF04F01000208010008B
:1009D00026809EAAFED7AECFE8FF30EC01F01000D3
:1009E000F926560C720C6F0C6F0C6F0C6D0C210CF1
:020000040030CA
:0100010028D6
:010003003CC0
:01000500BF3B
:010006008574
:00000001FF
